{
  "contractName": "Mycontract",
  "abi": [
    {
      "constant": false,
      "inputs": [
        {
          "name": "first",
          "type": "string"
        },
        {
          "name": "last",
          "type": "string"
        },
        {
          "name": "mail",
          "type": "string"
        }
      ],
      "name": "setUser",
      "outputs": [],
      "payable": false,
      "stateMutability": "nonpayable",
      "type": "function"
    },
    {
      "constant": true,
      "inputs": [
        {
          "name": "mail",
          "type": "string"
        }
      ],
      "name": "getUser",
      "outputs": [
        {
          "name": "",
          "type": "string"
        },
        {
          "name": "",
          "type": "string"
        },
        {
          "name": "",
          "type": "string"
        }
      ],
      "payable": false,
      "stateMutability": "view",
      "type": "function"
    },
    {
      "constant": true,
      "inputs": [],
      "name": "allUsers",
      "outputs": [
        {
          "components": [
            {
              "name": "fname",
              "type": "string"
            },
            {
              "name": "lname",
              "type": "string"
            },
            {
              "name": "email",
              "type": "string"
            }
          ],
          "name": "",
          "type": "tuple[]"
        }
      ],
      "payable": false,
      "stateMutability": "view",
      "type": "function"
    }
  ],
  "bytecode": "0x608060405234801561001057600080fd5b50610afb806100206000396000f3fe608060405234801561001057600080fd5b50600436106100415760003560e01c806331feb671146100465780634918600a146100715780636b17b27414610086575b600080fd5b610059610054366004610711565b61009b565b604051610068939291906109cf565b60405180910390f35b61007961033d565b60405161006891906109be565b61009961009436600461074e565b610560565b005b6060808060005b600054811161033457846040516020016100bc91906109a6565b60405160208183030381529060405280519060200120600082815481106100df57fe5b906000526020600020906003020160020160405160200161010091906109b2565b60405160208183030381529060405280519060200120141561032c576000818154811061012957fe5b90600052602060002090600302016000016000828154811061014757fe5b90600052602060002090600302016001016000838154811061016557fe5b6000918252602091829020845460408051601f600260001961010060018716150201909416849004908101879004870282018701909252818152600390940290920101928591908301828280156101fd5780601f106101d2576101008083540402835291602001916101fd565b820191906000526020600020905b8154815290600101906020018083116101e057829003601f168201915b5050855460408051602060026001851615610100026000190190941693909304601f81018490048402820184019092528181529598508794509250840190508282801561028b5780601f106102605761010080835404028352916020019161028b565b820191906000526020600020905b81548152906001019060200180831161026e57829003601f168201915b5050845460408051602060026001851615610100026000190190941693909304601f8101849004840282018401909252818152959750869450925084019050828280156103195780601f106102ee57610100808354040283529160200191610319565b820191906000526020600020905b8154815290600101906020018083116102fc57829003601f168201915b5050505050905093509350935050610336565b6001016100a2565b505b9193909250565b60606000805480602002602001604051908101604052809291908181526020016000905b828210156105565760008481526020908190206040805160038602909201805460026001821615610100026000190190911604601f810185900490940283016080908101909252606083018481529293909284929091849184018282801561040a5780601f106103df5761010080835404028352916020019161040a565b820191906000526020600020905b8154815290600101906020018083116103ed57829003601f168201915b50505050508152602001600182018054600181600116156101000203166002900480601f0160208091040260200160405190810160405280929190818152602001828054600181600116156101000203166002900480156104ac5780601f10610481576101008083540402835291602001916104ac565b820191906000526020600020905b81548152906001019060200180831161048f57829003601f168201915b5050509183525050600282810180546040805160206001841615610100026000190190931694909404601f8101839004830285018301909152808452938101939083018282801561053e5780601f106105135761010080835404028352916020019161053e565b820191906000526020600020905b81548152906001019060200180831161052157829003601f168201915b50505050508152505081526020019060010190610361565b5050505090505b90565b610568610604565b8381526020808201849052604082018390526000805460018101808355918052835180519293859360039093027f290decd9548b62a8d60345a988386fc84ba6bc95484008f6362f93160ef3e56301926105c59284920190610625565b5060208281015180516105de9260018501920190610625565b50604082015180516105fa916002840191602090910190610625565b5050505050505050565b60405180606001604052806060815260200160608152602001606081525090565b828054600181600116156101000203166002900490600052602060002090601f016020900481019282601f1061066657805160ff1916838001178555610693565b82800160010185558215610693579182015b82811115610693578251825591602001919060010190610678565b5061069f9291506106a3565b5090565b61055d91905b8082111561069f57600081556001016106a9565b600082601f8301126106ce57600080fd5b81356106e16106dc82610a2f565b610a08565b915080825260208301602083018583830111156106fd57600080fd5b610708838284610a7b565b50505092915050565b60006020828403121561072357600080fd5b813567ffffffffffffffff81111561073a57600080fd5b610746848285016106bd565b949350505050565b60008060006060848603121561076357600080fd5b833567ffffffffffffffff81111561077a57600080fd5b610786868287016106bd565b935050602084013567ffffffffffffffff8111156107a357600080fd5b6107af868287016106bd565b925050604084013567ffffffffffffffff8111156107cc57600080fd5b6107d8868287016106bd565b9150509250925092565b60006107ee8383610951565b9392505050565b600061080082610a69565b61080a8185610a6d565b93508360208202850161081c85610a57565b8060005b85811015610856578484038952815161083985826107e2565b945061084483610a57565b60209a909a0199925050600101610820565b5091979650505050505050565b600061086e82610a69565b6108788185610a6d565b9350610888818560208601610a87565b61089181610ab7565b9093019392505050565b60006108a682610a69565b6108b08185610a76565b93506108c0818560208601610a87565b9290920192915050565b6000815460018116600081146108e7576001811461090a57610949565b607f60028304166108f88187610a76565b60ff1984168152955085019250610949565b600282046109188187610a76565b955061092385610a5d565b60005b8281101561094257815488820152600190910190602001610926565b5050850192505b505092915050565b80516060808452600091908401906109698282610863565b915050602083015184820360208601526109838282610863565b9150506040830151848203604086015261099d8282610863565b95945050505050565b60006107ee828461089b565b60006107ee82846108ca565b602080825281016107ee81846107f5565b606080825281016109e08186610863565b905081810360208301526109f48185610863565b9050818103604083015261099d8184610863565b60405181810167ffffffffffffffff81118282101715610a2757600080fd5b604052919050565b600067ffffffffffffffff821115610a4657600080fd5b506020601f91909101601f19160190565b60200190565b60009081526020902090565b5190565b90815260200190565b919050565b82818337506000910152565b60005b83811015610aa2578181015183820152602001610a8a565b83811115610ab1576000848401525b50505050565b601f01601f19169056fea265627a7a72305820d34864fa1ea9c18d7146e5cde62fe2bf33b410ab3698975ec73df9861cd4ba116c6578706572696d656e74616cf50037",
  "source": "pragma solidity >=0.4.15 < 0.6.0;\npragma experimental ABIEncoderV2;\ncontract Mycontract {\n\n    struct User {\n    string fname ;\n    string lname ;\n    string email;\n    }\n    User[] private user;\n\nfunction setUser (string memory first, string memory last, string memory mail )public {\n    User memory u1;\n    u1.fname = first;\n    u1.lname = last;\n    u1.email = mail;\n\n    user.push(u1);\n}\nfunction getUser (string memory mail)\npublic view returns (string memory,\n                    string memory,\n                    string memory)\n                    {\n    for(uint i = 0; i <= user.length; i++) {\n    if (keccak256(abi.encodePacked(user[i].email)) == keccak256(abi.encodePacked(mail)))\n       return (user[i].fname, user[i].lname, user[i].email);\n    }\n}\nfunction allUsers() public view returns (User[] memory) {\n    return user;\n}\n}\n\n",
  "sourcePath": "/home/bilal/Etx/hd_wallet/contracts/Mycontract.sol",
  "compiler": {
    "name": "solc",
    "version": "0.5.8+commit.23d335f2.Emscripten.clang"
  },
  "schemaVersion": "3.0.16",
  "updatedAt": "2019-12-10T07:14:15.411Z",
  "devdoc": {
    "methods": {}
  },
  "userdoc": {
    "methods": {}
  }
}