{
  "contractName": "Mycontract",
  "abi": [
    {
      "constant": false,
      "inputs": [
        {
          "name": "first",
          "type": "string"
        },
        {
          "name": "last",
          "type": "string"
        },
        {
          "name": "mail",
          "type": "string"
        }
      ],
      "name": "setUser",
      "outputs": [],
      "payable": false,
      "stateMutability": "nonpayable",
      "type": "function"
    },
    {
      "constant": true,
      "inputs": [
        {
          "name": "mail",
          "type": "string"
        }
      ],
      "name": "getUser",
      "outputs": [
        {
          "name": "",
          "type": "string"
        },
        {
          "name": "",
          "type": "string"
        },
        {
          "name": "",
          "type": "string"
        }
      ],
      "payable": false,
      "stateMutability": "view",
      "type": "function"
    },
    {
      "constant": true,
      "inputs": [],
      "name": "allUsers",
      "outputs": [
        {
          "components": [
            {
              "name": "fname",
              "type": "string"
            },
            {
              "name": "lname",
              "type": "string"
            },
            {
              "name": "email",
              "type": "string"
            }
          ],
          "name": "",
          "type": "tuple[]"
        }
      ],
      "payable": false,
      "stateMutability": "view",
      "type": "function"
    }
  ],
  "bytecode": "0x608060405234801561001057600080fd5b50610c97806100206000396000f3fe608060405234801561001057600080fd5b50600436106100415760003560e01c806331feb671146100465780634918600a146100785780636b17b27414610096575b600080fd5b610060600480360361005b919081019061079a565b6100b2565b60405161006f93929190610ada565b60405180910390f35b61008061038a565b60405161008d9190610ab8565b60405180910390f35b6100b060048036036100ab91908101906107db565b6105cf565b005b606080606060008090505b600080549050811161038157846040516020016100da9190610a8a565b60405160208183030381529060405280519060200120600082815481106100fd57fe5b906000526020600020906003020160020160405160200161011e9190610aa1565b604051602081830303815290604052805190602001201415610374576000818154811061014757fe5b90600052602060002090600302016000016000828154811061016557fe5b90600052602060002090600302016001016000838154811061018357fe5b9060005260206000209060030201600201828054600181600116156101000203166002900480601f0160208091040260200160405190810160405280929190818152602001828054600181600116156101000203166002900480156102295780601f106101fe57610100808354040283529160200191610229565b820191906000526020600020905b81548152906001019060200180831161020c57829003601f168201915b50505050509250818054600181600116156101000203166002900480601f0160208091040260200160405190810160405280929190818152602001828054600181600116156101000203166002900480156102c55780601f1061029a576101008083540402835291602001916102c5565b820191906000526020600020905b8154815290600101906020018083116102a857829003601f168201915b50505050509150808054600181600116156101000203166002900480601f0160208091040260200160405190810160405280929190818152602001828054600181600116156101000203166002900480156103615780601f1061033657610100808354040283529160200191610361565b820191906000526020600020905b81548152906001019060200180831161034457829003601f168201915b5050505050905093509350935050610383565b80806001019150506100bd565b505b9193909250565b60606000805480602002602001604051908101604052809291908181526020016000905b828210156105c65783829060005260206000209060030201604051806060016040529081600082018054600181600116156101000203166002900480601f01602080910402602001604051908101604052809291908181526020018280546001816001161561010002031660029004801561046a5780601f1061043f5761010080835404028352916020019161046a565b820191906000526020600020905b81548152906001019060200180831161044d57829003601f168201915b50505050508152602001600182018054600181600116156101000203166002900480601f01602080910402602001604051908101604052809291908181526020018280546001816001161561010002031660029004801561050c5780601f106104e15761010080835404028352916020019161050c565b820191906000526020600020905b8154815290600101906020018083116104ef57829003601f168201915b50505050508152602001600282018054600181600116156101000203166002900480601f0160208091040260200160405190810160405280929190818152602001828054600181600116156101000203166002900480156105ae5780601f10610583576101008083540402835291602001916105ae565b820191906000526020600020905b81548152906001019060200180831161059157829003601f168201915b505050505081525050815260200190600101906103ae565b50505050905090565b6105d7610680565b83816000018190525082816020018190525081816040018190525060008190806001815401808255809150509060018203906000526020600020906003020160009091929091909150600082015181600001908051906020019061063c9291906106a1565b5060208201518160010190805190602001906106599291906106a1565b5060408201518160020190805190602001906106769291906106a1565b5050505050505050565b60405180606001604052806060815260200160608152602001606081525090565b828054600181600116156101000203166002900490600052602060002090601f016020900481019282601f106106e257805160ff1916838001178555610710565b82800160010185558215610710579182015b8281111561070f5782518255916020019190600101906106f4565b5b50905061071d9190610721565b5090565b61074391905b8082111561073f576000816000905550600101610727565b5090565b90565b600082601f83011261075757600080fd5b813561076a61076582610b53565b610b26565b9150808252602083016020830185838301111561078657600080fd5b610791838284610c0a565b50505092915050565b6000602082840312156107ac57600080fd5b600082013567ffffffffffffffff8111156107c657600080fd5b6107d284828501610746565b91505092915050565b6000806000606084860312156107f057600080fd5b600084013567ffffffffffffffff81111561080a57600080fd5b61081686828701610746565b935050602084013567ffffffffffffffff81111561083357600080fd5b61083f86828701610746565b925050604084013567ffffffffffffffff81111561085c57600080fd5b61086886828701610746565b9150509250925092565b600061087e8383610a2c565b905092915050565b600061089182610b9e565b61089b8185610bcc565b9350836020820285016108ad85610b7f565b8060005b858110156108e957848403895281516108ca8582610872565b94506108d583610bbf565b925060208a019950506001810190506108b1565b50829750879550505050505092915050565b600061090682610bb4565b6109108185610bee565b9350610920818560208601610c19565b61092981610c4c565b840191505092915050565b600061093f82610bb4565b6109498185610bff565b9350610959818560208601610c19565b80840191505092915050565b600061097082610ba9565b61097a8185610bdd565b935061098a818560208601610c19565b61099381610c4c565b840191505092915050565b6000815460018116600081146109bb57600181146109e057610a24565b607f60028304166109cc8187610bff565b955060ff1983168652808601935050610a24565b600282046109ee8187610bff565b95506109f985610b8c565b60005b82811015610a1b578154818901526001820191506020810190506109fc565b82880195505050505b505092915050565b60006060830160008301518482036000860152610a498282610965565b91505060208301518482036020860152610a638282610965565b91505060408301518482036040860152610a7d8282610965565b9150508091505092915050565b6000610a968284610934565b915081905092915050565b6000610aad828461099e565b915081905092915050565b60006020820190508181036000830152610ad28184610886565b905092915050565b60006060820190508181036000830152610af481866108fb565b90508181036020830152610b0881856108fb565b90508181036040830152610b1c81846108fb565b9050949350505050565b6000604051905081810181811067ffffffffffffffff82111715610b4957600080fd5b8060405250919050565b600067ffffffffffffffff821115610b6a57600080fd5b601f19601f8301169050602081019050919050565b6000602082019050919050565b60008160005260206000209050919050565b600081519050919050565b600081519050919050565b600081519050919050565b6000602082019050919050565b600082825260208201905092915050565b600082825260208201905092915050565b600082825260208201905092915050565b600081905092915050565b82818337600083830152505050565b60005b83811015610c37578082015181840152602081019050610c1c565b83811115610c46576000848401525b50505050565b6000601f19601f830116905091905056fea265627a7a723058206bbfe343e566fbe682e1db61cbeaa01c561e16df73e99c76e06079bf02ac263b6c6578706572696d656e74616cf50037",
  "source": "pragma solidity >=0.4.15 < 0.6.0;\npragma experimental ABIEncoderV2;\ncontract Mycontract {\n\n    struct User {\n    string fname ;\n    string lname ;\n    string email;\n    }\n    User[] private user;\n\nfunction setUser (string memory first, string memory last, string memory mail )public {\n    User memory u1;\n    u1.fname = first;\n    u1.lname = last;\n    u1.email = mail;\n\n    user.push(u1);\n}\nfunction getUser (string memory mail)\npublic view returns (string memory,\n                    string memory,\n                    string memory)\n                    {\n    for(uint i = 0; i <= user.length; i++) {\n    if (keccak256(abi.encodePacked(user[i].email)) == keccak256(abi.encodePacked(mail)))\n       return (user[i].fname, user[i].lname, user[i].email);\n    }\n}\nfunction allUsers() public view returns (User[] memory) {\n    return user;\n}\n}\n\n",
  "sourcePath": "/home/bilal/Etx/hd_wallet/contracts/Mycontract.sol",
  "compiler": {
    "name": "solc",
    "version": "0.5.8+commit.23d335f2.Emscripten.clang"
  },
  "schemaVersion": "3.0.16",
  "updatedAt": "2019-12-09T16:58:00.131Z",
  "devdoc": {
    "methods": {}
  },
  "userdoc": {
    "methods": {}
  }
}